{
  "contractName": "CrankCoin",
  "abi": [
    {
      "inputs": [],
      "stateMutability": "nonpayable",
      "type": "constructor"
    },
    {
      "anonymous": false,
      "inputs": [
        {
          "indexed": true,
          "internalType": "address",
          "name": "owner",
          "type": "address"
        },
        {
          "indexed": true,
          "internalType": "address",
          "name": "spender",
          "type": "address"
        },
        {
          "indexed": false,
          "internalType": "uint256",
          "name": "value",
          "type": "uint256"
        }
      ],
      "name": "Approval",
      "type": "event"
    },
    {
      "anonymous": false,
      "inputs": [
        {
          "indexed": true,
          "internalType": "address",
          "name": "user",
          "type": "address"
        },
        {
          "indexed": false,
          "internalType": "uint256",
          "name": "amount",
          "type": "uint256"
        },
        {
          "indexed": false,
          "internalType": "uint256",
          "name": "unlockTime",
          "type": "uint256"
        }
      ],
      "name": "NewLock",
      "type": "event"
    },
    {
      "anonymous": false,
      "inputs": [
        {
          "indexed": true,
          "internalType": "address",
          "name": "user",
          "type": "address"
        },
        {
          "indexed": false,
          "internalType": "uint256",
          "name": "initialStake",
          "type": "uint256"
        },
        {
          "indexed": false,
          "internalType": "uint256",
          "name": "rewards",
          "type": "uint256"
        },
        {
          "indexed": false,
          "internalType": "uint256",
          "name": "timestamp",
          "type": "uint256"
        }
      ],
      "name": "NewUnlock",
      "type": "event"
    },
    {
      "anonymous": false,
      "inputs": [
        {
          "indexed": true,
          "internalType": "address",
          "name": "previousOwner",
          "type": "address"
        },
        {
          "indexed": true,
          "internalType": "address",
          "name": "newOwner",
          "type": "address"
        }
      ],
      "name": "OwnershipTransferred",
      "type": "event"
    },
    {
      "anonymous": false,
      "inputs": [
        {
          "indexed": true,
          "internalType": "uint256",
          "name": "timestamp",
          "type": "uint256"
        },
        {
          "indexed": true,
          "internalType": "uint256",
          "name": "rewards",
          "type": "uint256"
        }
      ],
      "name": "RewardShared",
      "type": "event"
    },
    {
      "anonymous": false,
      "inputs": [
        {
          "indexed": true,
          "internalType": "address",
          "name": "from",
          "type": "address"
        },
        {
          "indexed": true,
          "internalType": "address",
          "name": "to",
          "type": "address"
        },
        {
          "indexed": false,
          "internalType": "uint256",
          "name": "value",
          "type": "uint256"
        }
      ],
      "name": "Transfer",
      "type": "event"
    },
    {
      "inputs": [
        {
          "internalType": "address",
          "name": "",
          "type": "address"
        }
      ],
      "name": "locks",
      "outputs": [
        {
          "internalType": "address",
          "name": "user",
          "type": "address"
        },
        {
          "internalType": "uint256",
          "name": "amount",
          "type": "uint256"
        },
        {
          "internalType": "uint256",
          "name": "unlockTime",
          "type": "uint256"
        }
      ],
      "stateMutability": "view",
      "type": "function"
    },
    {
      "inputs": [],
      "name": "owner",
      "outputs": [
        {
          "internalType": "address",
          "name": "",
          "type": "address"
        }
      ],
      "stateMutability": "view",
      "type": "function"
    },
    {
      "inputs": [],
      "name": "renounceOwnership",
      "outputs": [],
      "stateMutability": "nonpayable",
      "type": "function"
    },
    {
      "inputs": [
        {
          "internalType": "address",
          "name": "newOwner",
          "type": "address"
        }
      ],
      "name": "transferOwnership",
      "outputs": [],
      "stateMutability": "nonpayable",
      "type": "function"
    },
    {
      "inputs": [],
      "name": "name",
      "outputs": [
        {
          "internalType": "string",
          "name": "",
          "type": "string"
        }
      ],
      "stateMutability": "view",
      "type": "function"
    },
    {
      "inputs": [],
      "name": "symbol",
      "outputs": [
        {
          "internalType": "string",
          "name": "",
          "type": "string"
        }
      ],
      "stateMutability": "view",
      "type": "function"
    },
    {
      "inputs": [],
      "name": "decimals",
      "outputs": [
        {
          "internalType": "uint8",
          "name": "",
          "type": "uint8"
        }
      ],
      "stateMutability": "view",
      "type": "function"
    },
    {
      "inputs": [],
      "name": "totalSupply",
      "outputs": [
        {
          "internalType": "uint256",
          "name": "",
          "type": "uint256"
        }
      ],
      "stateMutability": "view",
      "type": "function"
    },
    {
      "inputs": [
        {
          "internalType": "address",
          "name": "account",
          "type": "address"
        }
      ],
      "name": "balanceOf",
      "outputs": [
        {
          "internalType": "uint256",
          "name": "",
          "type": "uint256"
        }
      ],
      "stateMutability": "view",
      "type": "function"
    },
    {
      "inputs": [
        {
          "internalType": "address",
          "name": "recipient",
          "type": "address"
        },
        {
          "internalType": "uint256",
          "name": "amount",
          "type": "uint256"
        }
      ],
      "name": "transfer",
      "outputs": [
        {
          "internalType": "bool",
          "name": "",
          "type": "bool"
        }
      ],
      "stateMutability": "nonpayable",
      "type": "function"
    },
    {
      "inputs": [
        {
          "internalType": "address",
          "name": "owner",
          "type": "address"
        },
        {
          "internalType": "address",
          "name": "spender",
          "type": "address"
        }
      ],
      "name": "allowance",
      "outputs": [
        {
          "internalType": "uint256",
          "name": "",
          "type": "uint256"
        }
      ],
      "stateMutability": "view",
      "type": "function"
    },
    {
      "inputs": [
        {
          "internalType": "address",
          "name": "spender",
          "type": "address"
        },
        {
          "internalType": "uint256",
          "name": "amount",
          "type": "uint256"
        }
      ],
      "name": "approve",
      "outputs": [
        {
          "internalType": "bool",
          "name": "",
          "type": "bool"
        }
      ],
      "stateMutability": "nonpayable",
      "type": "function"
    },
    {
      "inputs": [
        {
          "internalType": "address",
          "name": "sender",
          "type": "address"
        },
        {
          "internalType": "address",
          "name": "recipient",
          "type": "address"
        },
        {
          "internalType": "uint256",
          "name": "amount",
          "type": "uint256"
        }
      ],
      "name": "transferFrom",
      "outputs": [
        {
          "internalType": "bool",
          "name": "",
          "type": "bool"
        }
      ],
      "stateMutability": "nonpayable",
      "type": "function"
    },
    {
      "inputs": [
        {
          "internalType": "address",
          "name": "spender",
          "type": "address"
        },
        {
          "internalType": "uint256",
          "name": "addedValue",
          "type": "uint256"
        }
      ],
      "name": "increaseAllowance",
      "outputs": [
        {
          "internalType": "bool",
          "name": "",
          "type": "bool"
        }
      ],
      "stateMutability": "nonpayable",
      "type": "function"
    },
    {
      "inputs": [
        {
          "internalType": "address",
          "name": "spender",
          "type": "address"
        },
        {
          "internalType": "uint256",
          "name": "subtractedValue",
          "type": "uint256"
        }
      ],
      "name": "decreaseAllowance",
      "outputs": [
        {
          "internalType": "bool",
          "name": "",
          "type": "bool"
        }
      ],
      "stateMutability": "nonpayable",
      "type": "function"
    },
    {
      "inputs": [
        {
          "internalType": "uint256",
          "name": "amount",
          "type": "uint256"
        }
      ],
      "name": "burn",
      "outputs": [],
      "stateMutability": "nonpayable",
      "type": "function"
    },
    {
      "inputs": [],
      "name": "getContractBalance",
      "outputs": [
        {
          "internalType": "uint256",
          "name": "",
          "type": "uint256"
        }
      ],
      "stateMutability": "view",
      "type": "function"
    },
    {
      "inputs": [],
      "name": "getTotallockedToken",
      "outputs": [
        {
          "internalType": "uint256",
          "name": "",
          "type": "uint256"
        }
      ],
      "stateMutability": "view",
      "type": "function"
    },
    {
      "inputs": [
        {
          "internalType": "uint256",
          "name": "_amount",
          "type": "uint256"
        }
      ],
      "name": "lock",
      "outputs": [],
      "stateMutability": "nonpayable",
      "type": "function"
    },
    {
      "inputs": [],
      "name": "unlock",
      "outputs": [],
      "stateMutability": "nonpayable",
      "type": "function"
    },
    {
      "inputs": [
        {
          "internalType": "address[]",
          "name": "_accounts",
          "type": "address[]"
        },
        {
          "internalType": "uint256[]",
          "name": "_rewards",
          "type": "uint256[]"
        }
      ],
      "name": "shareReward",
      "outputs": [],
      "stateMutability": "nonpayable",
      "type": "function"
    },
    {
      "inputs": [],
      "name": "claimRewards",
      "outputs": [],
      "stateMutability": "nonpayable",
      "type": "function"
    },
    {
      "inputs": [
        {
          "internalType": "address",
          "name": "account",
          "type": "address"
        }
      ],
      "name": "checkRewards",
      "outputs": [
        {
          "internalType": "uint256",
          "name": "",
          "type": "uint256"
        }
      ],
      "stateMutability": "view",
      "type": "function"
    },
    {
      "inputs": [
        {
          "internalType": "uint256",
          "name": "_amount",
          "type": "uint256"
        }
      ],
      "name": "calculateLockGains",
      "outputs": [
        {
          "internalType": "uint256",
          "name": "",
          "type": "uint256"
        }
      ],
      "stateMutability": "pure",
      "type": "function"
    }
  ],
  "bytecode": "0x60806040523480156200001157600080fd5b506000620000246200019d60201b60201c565b9050806000806101000a81548173ffffffffffffffffffffffffffffffffffffffff021916908373ffffffffffffffffffffffffffffffffffffffff1602179055508073ffffffffffffffffffffffffffffffffffffffff16600073ffffffffffffffffffffffffffffffffffffffff167f8be0079c531659141344cd1fd0a4f28419497f9722a3daafe3b4186f6b6457e060405160405180910390a3506040518060400160405280600981526020017f4372616e6b436f696e0000000000000000000000000000000000000000000000815250600890805190602001906200010f92919062000353565b506040518060400160405280600381526020017f434b4e0000000000000000000000000000000000000000000000000000000000815250600990805190602001906200015d92919062000353565b506000600781905550600069021e19e0c9bab2400000905062000196620001896200019d60201b60201c565b82620001a560201b60201c565b50620006a4565b600033905090565b600073ffffffffffffffffffffffffffffffffffffffff168273ffffffffffffffffffffffffffffffffffffffff16141562000218576040517f08c379a00000000000000000000000000000000000000000000000000000000081526004016200020f9062000456565b60405180910390fd5b6200022c600083836200030d60201b60201c565b50508060056000828254620002429190620004a6565b9250508190555080600160008473ffffffffffffffffffffffffffffffffffffffff1673ffffffffffffffffffffffffffffffffffffffff16815260200190815260200160002060008282546200029a9190620004a6565b925050819055508173ffffffffffffffffffffffffffffffffffffffff16600073ffffffffffffffffffffffffffffffffffffffff167fddf252ad1be2c89b69c2b068fc378daa952ba7f163c4a11628f55a4df523b3ef8360405162000301919062000478565b60405180910390a35050565b600080600060646005856200032391906200053b565b6200032f919062000503565b9050600081856200034191906200059c565b90508082935093505050935093915050565b8280546200036190620005e1565b90600052602060002090601f016020900481019282620003855760008555620003d1565b82601f10620003a057805160ff1916838001178555620003d1565b82800160010185558215620003d1579182015b82811115620003d0578251825591602001919060010190620003b3565b5b509050620003e09190620003e4565b5090565b5b80821115620003ff576000816000905550600101620003e5565b5090565b600062000412601f8362000495565b91507f45524332303a206d696e7420746f20746865207a65726f2061646472657373006000830152602082019050919050565b6200045081620005d7565b82525050565b60006020820190508181036000830152620004718162000403565b9050919050565b60006020820190506200048f600083018462000445565b92915050565b600082825260208201905092915050565b6000620004b382620005d7565b9150620004c083620005d7565b9250827fffffffffffffffffffffffffffffffffffffffffffffffffffffffffffffffff03821115620004f857620004f762000617565b5b828201905092915050565b60006200051082620005d7565b91506200051d83620005d7565b92508262000530576200052f62000646565b5b828204905092915050565b60006200054882620005d7565b91506200055583620005d7565b9250817fffffffffffffffffffffffffffffffffffffffffffffffffffffffffffffffff048311821515161562000591576200059062000617565b5b828202905092915050565b6000620005a982620005d7565b9150620005b683620005d7565b925082821015620005cc57620005cb62000617565b5b828203905092915050565b6000819050919050565b60006002820490506001821680620005fa57607f821691505b6020821081141562000611576200061062000675565b5b50919050565b7f4e487b7100000000000000000000000000000000000000000000000000000000600052601160045260246000fd5b7f4e487b7100000000000000000000000000000000000000000000000000000000600052601260045260246000fd5b7f4e487b7100000000000000000000000000000000000000000000000000000000600052602260045260246000fd5b61317880620006b46000396000f3fe608060405234801561001057600080fd5b50600436106101585760003560e01c8063715018a6116100c3578063a69df4b51161007c578063a69df4b5146103cd578063a9059cbb146103d7578063dd46706414610407578063dd62ed3e14610423578063f22b84b414610453578063f2fde38b1461048357610158565b8063715018a61461031d5780638da5cb5b146103275780638e01bfe714610345578063904c56231461036157806395d89b411461037f578063a457c2d71461039d57610158565b8063372500ab11610115578063372500ab14610247578063395093511461025157806342966c68146102815780635de9a1371461029d5780636f9fb98a146102cf57806370a08231146102ed57610158565b8063046ff0d31461015d57806306fdde031461018d578063095ea7b3146101ab57806318160ddd146101db57806323b872dd146101f9578063313ce56714610229575b600080fd5b6101776004803603810190610172919061214b565b61049f565b6040516101849190612cf4565b60405180910390f35b61019561052f565b6040516101a29190612a92565b60405180910390f35b6101c560048036038101906101c091906121ff565b6105c1565b6040516101d29190612a77565b60405180910390f35b6101e36105df565b6040516101f09190612cf4565b60405180910390f35b610213600480360381019061020e91906121b0565b6105e9565b6040516102209190612a77565b60405180910390f35b610231610767565b60405161023e9190612d6f565b60405180910390f35b61024f610770565b005b61026b600480360381019061026691906121ff565b6108f3565b6040516102789190612a77565b60405180910390f35b61029b600480360381019061029691906122a7565b61099f565b005b6102b760048036038101906102b2919061214b565b6109b3565b6040516102c693929190612a40565b60405180910390f35b6102d76109fd565b6040516102e49190612cf4565b60405180910390f35b6103076004803603810190610302919061214b565b610a44565b6040516103149190612cf4565b60405180910390f35b610325610a8d565b005b61032f610bc7565b60405161033c9190612a25565b60405180910390f35b61035f600480360381019061035a919061223b565b610bf0565b005b610369610e10565b6040516103769190612cf4565b60405180910390f35b610387610e1a565b6040516103949190612a92565b60405180910390f35b6103b760048036038101906103b291906121ff565b610eac565b6040516103c49190612a77565b60405180910390f35b6103d561101e565b005b6103f160048036038101906103ec91906121ff565b6112c3565b6040516103fe9190612a77565b60405180910390f35b610421600480360381019061041c91906122a7565b6112e1565b005b61043d60048036038101906104389190612174565b6115b6565b60405161044a9190612cf4565b60405180910390f35b61046d600480360381019061046891906122a7565b61163d565b60405161047a9190612cf4565b60405180910390f35b61049d6004803603810190610498919061214b565b611664565b005b600080600460008473ffffffffffffffffffffffffffffffffffffffff1673ffffffffffffffffffffffffffffffffffffffff16815260200190815260200160002054905060008114156104f6578091505061052a565b60006064600a836105079190612eb6565b6105119190612e85565b9050600081836105219190612f10565b90508093505050505b919050565b60606008805461053e90612fcc565b80601f016020809104026020016040519081016040528092919081815260200182805461056a90612fcc565b80156105b75780601f1061058c576101008083540402835291602001916105b7565b820191906000526020600020905b81548152906001019060200180831161059a57829003601f168201915b5050505050905090565b60006105d56105ce61180d565b8484611815565b6001905092915050565b6000600554905090565b60006105f68484846119e0565b81600260008673ffffffffffffffffffffffffffffffffffffffff1673ffffffffffffffffffffffffffffffffffffffff168152602001908152602001600020600061064061180d565b73ffffffffffffffffffffffffffffffffffffffff1673ffffffffffffffffffffffffffffffffffffffff1681526020019081526020016000205410156106bc576040517f08c379a00000000000000000000000000000000000000000000000000000000081526004016106b390612bf4565b60405180910390fd5b61075c846106c861180d565b84600260008973ffffffffffffffffffffffffffffffffffffffff1673ffffffffffffffffffffffffffffffffffffffff168152602001908152602001600020600061071261180d565b73ffffffffffffffffffffffffffffffffffffffff1673ffffffffffffffffffffffffffffffffffffffff168152602001908152602001600020546107579190612f10565b611815565b600190509392505050565b60006012905090565b600061078261077d61180d565b61049f565b116107c2576040517f08c379a00000000000000000000000000000000000000000000000000000000081526004016107b990612b74565b60405180910390fd5b6000600460006107d061180d565b73ffffffffffffffffffffffffffffffffffffffff1673ffffffffffffffffffffffffffffffffffffffff16815260200190815260200160002054905060006004600061081b61180d565b73ffffffffffffffffffffffffffffffffffffffff1673ffffffffffffffffffffffffffffffffffffffff168152602001908152602001600020819055506000606460058361086a9190612eb6565b6108749190612e85565b9050600081836108849190612f10565b905081600160003073ffffffffffffffffffffffffffffffffffffffff1673ffffffffffffffffffffffffffffffffffffffff16815260200190815260200160002060008282546108d59190612e2f565b925050819055506108ee306108e861180d565b836119e0565b505050565b600061099561090061180d565b84846002600061090e61180d565b73ffffffffffffffffffffffffffffffffffffffff1673ffffffffffffffffffffffffffffffffffffffff16815260200190815260200160002060008873ffffffffffffffffffffffffffffffffffffffff1673ffffffffffffffffffffffffffffffffffffffff168152602001908152602001600020546109909190612e2f565b611815565b6001905092915050565b6109b06109aa61180d565b82611c85565b50565b60036020528060005260406000206000915090508060000160009054906101000a900473ffffffffffffffffffffffffffffffffffffffff16908060010154908060020154905083565b6000600160003073ffffffffffffffffffffffffffffffffffffffff1673ffffffffffffffffffffffffffffffffffffffff16815260200190815260200160002054905090565b6000600160008373ffffffffffffffffffffffffffffffffffffffff1673ffffffffffffffffffffffffffffffffffffffff168152602001908152602001600020549050919050565b610a9561180d565b73ffffffffffffffffffffffffffffffffffffffff16610ab3610bc7565b73ffffffffffffffffffffffffffffffffffffffff1614610b09576040517f08c379a0000000000000000000000000000000000000000000000000000000008152600401610b0090612c14565b60405180910390fd5b600073ffffffffffffffffffffffffffffffffffffffff1660008054906101000a900473ffffffffffffffffffffffffffffffffffffffff1673ffffffffffffffffffffffffffffffffffffffff167f8be0079c531659141344cd1fd0a4f28419497f9722a3daafe3b4186f6b6457e060405160405180910390a360008060006101000a81548173ffffffffffffffffffffffffffffffffffffffff021916908373ffffffffffffffffffffffffffffffffffffffff160217905550565b60008060009054906101000a900473ffffffffffffffffffffffffffffffffffffffff16905090565b610bf861180d565b73ffffffffffffffffffffffffffffffffffffffff16610c16610bc7565b73ffffffffffffffffffffffffffffffffffffffff1614610c6c576040517f08c379a0000000000000000000000000000000000000000000000000000000008152600401610c6390612c14565b60405180910390fd5b6000805b8351811015610db9576000848281518110610cb4577f4e487b7100000000000000000000000000000000000000000000000000000000600052603260045260246000fd5b602002602001015190506000848381518110610cf9577f4e487b7100000000000000000000000000000000000000000000000000000000600052603260045260246000fd5b60200260200101519050600073ffffffffffffffffffffffffffffffffffffffff168273ffffffffffffffffffffffffffffffffffffffff161415610d3f575050610da6565b8084610d4b9190612e2f565b935080600460008473ffffffffffffffffffffffffffffffffffffffff1673ffffffffffffffffffffffffffffffffffffffff1681526020019081526020016000206000828254610d9c9190612e2f565b9250508190555050505b8080610db190612ffe565b915050610c70565b508060066000828254610dcc9190612e2f565b92505081905550610ddd3082611e5e565b80427f25613a7984db66f2c95003832a88435699fd72645a31363bc1423eb41d2f5cb860405160405180910390a3505050565b6000600754905090565b606060098054610e2990612fcc565b80601f0160208091040260200160405190810160405280929190818152602001828054610e5590612fcc565b8015610ea25780601f10610e7757610100808354040283529160200191610ea2565b820191906000526020600020905b815481529060010190602001808311610e8557829003601f168201915b5050505050905090565b60008160026000610ebb61180d565b73ffffffffffffffffffffffffffffffffffffffff1673ffffffffffffffffffffffffffffffffffffffff16815260200190815260200160002060008573ffffffffffffffffffffffffffffffffffffffff1673ffffffffffffffffffffffffffffffffffffffff168152602001908152602001600020541015610f74576040517f08c379a0000000000000000000000000000000000000000000000000000000008152600401610f6b90612cb4565b60405180910390fd5b611014610f7f61180d565b848460026000610f8d61180d565b73ffffffffffffffffffffffffffffffffffffffff1673ffffffffffffffffffffffffffffffffffffffff16815260200190815260200160002060008873ffffffffffffffffffffffffffffffffffffffff1673ffffffffffffffffffffffffffffffffffffffff1681526020019081526020016000205461100f9190612f10565b611815565b6001905092915050565b60006003600061102c61180d565b73ffffffffffffffffffffffffffffffffffffffff1673ffffffffffffffffffffffffffffffffffffffff16815260200190815260200160002060010154116110aa576040517f08c379a00000000000000000000000000000000000000000000000000000000081526004016110a190612af4565b60405180910390fd5b42600360006110b761180d565b73ffffffffffffffffffffffffffffffffffffffff1673ffffffffffffffffffffffffffffffffffffffff168152602001908152602001600020600201541115611136576040517f08c379a000000000000000000000000000000000000000000000000000000000815260040161112d90612b94565b60405180910390fd5b60006003600061114461180d565b73ffffffffffffffffffffffffffffffffffffffff1673ffffffffffffffffffffffffffffffffffffffff168152602001908152602001600020600101549050600061118e6109fd565b9050600061119b8361163d565b9050600081846111ab9190612e2f565b90506000600360006111bb61180d565b73ffffffffffffffffffffffffffffffffffffffff1673ffffffffffffffffffffffffffffffffffffffff16815260200190815260200160002060010181905550816006600082825461120e9190612e2f565b9250508190555083600760008282546112279190612f10565b925050819055508281111561125257600083826112449190612f10565b90506112503082611e5e565b505b6112643061125e61180d565b836119e0565b61126c61180d565b73ffffffffffffffffffffffffffffffffffffffff167fbddbf2e38b4e7c0e4d0bf5be5d97d09b6e3b16b0253defe97c4a0518f4167cb98584426040516112b593929190612d38565b60405180910390a250505050565b60006112d76112d061180d565b84846119e0565b6001905092915050565b42600360006112ee61180d565b73ffffffffffffffffffffffffffffffffffffffff1673ffffffffffffffffffffffffffffffffffffffff168152602001908152602001600020600201541061136c576040517f08c379a000000000000000000000000000000000000000000000000000000000815260040161136390612bd4565b60405180910390fd5b60006003600061137a61180d565b73ffffffffffffffffffffffffffffffffffffffff1673ffffffffffffffffffffffffffffffffffffffff16815260200190815260200160002060010154146113f8576040517f08c379a00000000000000000000000000000000000000000000000000000000081526004016113ef90612bb4565b60405180910390fd5b6000811161143b576040517f08c379a000000000000000000000000000000000000000000000000000000000815260040161143290612c74565b60405180910390fd5b61144d61144661180d565b30836119e0565b806007600082825461145f9190612e2f565b92505081905550600062278d00426114779190612e2f565b90506000604051806060016040528061148e61180d565b73ffffffffffffffffffffffffffffffffffffffff16815260200184815260200183815250905080600360006114c261180d565b73ffffffffffffffffffffffffffffffffffffffff1673ffffffffffffffffffffffffffffffffffffffff16815260200190815260200160002060008201518160000160006101000a81548173ffffffffffffffffffffffffffffffffffffffff021916908373ffffffffffffffffffffffffffffffffffffffff160217905550602082015181600101556040820151816002015590505061156261180d565b73ffffffffffffffffffffffffffffffffffffffff167f7879fe07a34927cf93a00574a8c2e55740a44179eb359ed6850e486df16c522284846040516115a9929190612d0f565b60405180910390a2505050565b6000600260008473ffffffffffffffffffffffffffffffffffffffff1673ffffffffffffffffffffffffffffffffffffffff16815260200190815260200160002060008373ffffffffffffffffffffffffffffffffffffffff1673ffffffffffffffffffffffffffffffffffffffff16815260200190815260200160002054905092915050565b600080606460148461164f9190612eb6565b6116599190612e85565b905080915050919050565b61166c61180d565b73ffffffffffffffffffffffffffffffffffffffff1661168a610bc7565b73ffffffffffffffffffffffffffffffffffffffff16146116e0576040517f08c379a00000000000000000000000000000000000000000000000000000000081526004016116d790612c14565b60405180910390fd5b600073ffffffffffffffffffffffffffffffffffffffff168173ffffffffffffffffffffffffffffffffffffffff161415611750576040517f08c379a000000000000000000000000000000000000000000000000000000000815260040161174790612b14565b60405180910390fd5b8073ffffffffffffffffffffffffffffffffffffffff1660008054906101000a900473ffffffffffffffffffffffffffffffffffffffff1673ffffffffffffffffffffffffffffffffffffffff167f8be0079c531659141344cd1fd0a4f28419497f9722a3daafe3b4186f6b6457e060405160405180910390a3806000806101000a81548173ffffffffffffffffffffffffffffffffffffffff021916908373ffffffffffffffffffffffffffffffffffffffff16021790555050565b600033905090565b600073ffffffffffffffffffffffffffffffffffffffff168373ffffffffffffffffffffffffffffffffffffffff161415611885576040517f08c379a000000000000000000000000000000000000000000000000000000000815260040161187c90612c94565b60405180910390fd5b600073ffffffffffffffffffffffffffffffffffffffff168273ffffffffffffffffffffffffffffffffffffffff1614156118f5576040517f08c379a00000000000000000000000000000000000000000000000000000000081526004016118ec90612b34565b60405180910390fd5b80600260008573ffffffffffffffffffffffffffffffffffffffff1673ffffffffffffffffffffffffffffffffffffffff16815260200190815260200160002060008473ffffffffffffffffffffffffffffffffffffffff1673ffffffffffffffffffffffffffffffffffffffff168152602001908152602001600020819055508173ffffffffffffffffffffffffffffffffffffffff168373ffffffffffffffffffffffffffffffffffffffff167f8c5be1e5ebec7d5bd14f71427d1e84f3dd0314c0f7b2291e5b200ac8c7c3b925836040516119d39190612cf4565b60405180910390a3505050565b600073ffffffffffffffffffffffffffffffffffffffff168373ffffffffffffffffffffffffffffffffffffffff161415611a50576040517f08c379a0000000000000000000000000000000000000000000000000000000008152600401611a4790612c54565b60405180910390fd5b600073ffffffffffffffffffffffffffffffffffffffff168273ffffffffffffffffffffffffffffffffffffffff161415611ac0576040517f08c379a0000000000000000000000000000000000000000000000000000000008152600401611ab790612ab4565b60405180910390fd5b600080611ace858585611fb5565b9150915082600160008773ffffffffffffffffffffffffffffffffffffffff1673ffffffffffffffffffffffffffffffffffffffff168152602001908152602001600020541015611b54576040517f08c379a0000000000000000000000000000000000000000000000000000000008152600401611b4b90612b54565b60405180910390fd5b82600160008773ffffffffffffffffffffffffffffffffffffffff1673ffffffffffffffffffffffffffffffffffffffff1681526020019081526020016000206000828254611ba39190612f10565b9250508190555081600160008673ffffffffffffffffffffffffffffffffffffffff1673ffffffffffffffffffffffffffffffffffffffff1681526020019081526020016000206000828254611bf99190612e2f565b925050819055508060056000828254611c129190612f10565b925050819055508373ffffffffffffffffffffffffffffffffffffffff168573ffffffffffffffffffffffffffffffffffffffff167fddf252ad1be2c89b69c2b068fc378daa952ba7f163c4a11628f55a4df523b3ef85604051611c769190612cf4565b60405180910390a35050505050565b600073ffffffffffffffffffffffffffffffffffffffff168273ffffffffffffffffffffffffffffffffffffffff161415611cf5576040517f08c379a0000000000000000000000000000000000000000000000000000000008152600401611cec90612c34565b60405180910390fd5b611d0182600083611fb5565b505080600160008473ffffffffffffffffffffffffffffffffffffffff1673ffffffffffffffffffffffffffffffffffffffff168152602001908152602001600020541015611d85576040517f08c379a0000000000000000000000000000000000000000000000000000000008152600401611d7c90612ad4565b60405180910390fd5b80600160008473ffffffffffffffffffffffffffffffffffffffff1673ffffffffffffffffffffffffffffffffffffffff1681526020019081526020016000206000828254611dd49190612f10565b925050819055508060056000828254611ded9190612f10565b92505081905550600073ffffffffffffffffffffffffffffffffffffffff168273ffffffffffffffffffffffffffffffffffffffff167fddf252ad1be2c89b69c2b068fc378daa952ba7f163c4a11628f55a4df523b3ef83604051611e529190612cf4565b60405180910390a35050565b600073ffffffffffffffffffffffffffffffffffffffff168273ffffffffffffffffffffffffffffffffffffffff161415611ece576040517f08c379a0000000000000000000000000000000000000000000000000000000008152600401611ec590612cd4565b60405180910390fd5b611eda60008383611fb5565b50508060056000828254611eee9190612e2f565b9250508190555080600160008473ffffffffffffffffffffffffffffffffffffffff1673ffffffffffffffffffffffffffffffffffffffff1681526020019081526020016000206000828254611f449190612e2f565b925050819055508173ffffffffffffffffffffffffffffffffffffffff16600073ffffffffffffffffffffffffffffffffffffffff167fddf252ad1be2c89b69c2b068fc378daa952ba7f163c4a11628f55a4df523b3ef83604051611fa99190612cf4565b60405180910390a35050565b60008060006064600585611fc99190612eb6565b611fd39190612e85565b905060008185611fe39190612f10565b90508082935093505050935093915050565b600061200861200384612dbb565b612d8a565b9050808382526020820190508285602086028201111561202757600080fd5b60005b85811015612057578161203d88826120cd565b84526020840193506020830192505060018101905061202a565b5050509392505050565b600061207461206f84612de7565b612d8a565b9050808382526020820190508285602086028201111561209357600080fd5b60005b858110156120c357816120a98882612136565b845260208401935060208301925050600181019050612096565b5050509392505050565b6000813590506120dc81613114565b92915050565b600082601f8301126120f357600080fd5b8135612103848260208601611ff5565b91505092915050565b600082601f83011261211d57600080fd5b813561212d848260208601612061565b91505092915050565b6000813590506121458161312b565b92915050565b60006020828403121561215d57600080fd5b600061216b848285016120cd565b91505092915050565b6000806040838503121561218757600080fd5b6000612195858286016120cd565b92505060206121a6858286016120cd565b9150509250929050565b6000806000606084860312156121c557600080fd5b60006121d3868287016120cd565b93505060206121e4868287016120cd565b92505060406121f586828701612136565b9150509250925092565b6000806040838503121561221257600080fd5b6000612220858286016120cd565b925050602061223185828601612136565b9150509250929050565b6000806040838503121561224e57600080fd5b600083013567ffffffffffffffff81111561226857600080fd5b612274858286016120e2565b925050602083013567ffffffffffffffff81111561229157600080fd5b61229d8582860161210c565b9150509250929050565b6000602082840312156122b957600080fd5b60006122c784828501612136565b91505092915050565b6122d981612f44565b82525050565b6122e881612f56565b82525050565b60006122f982612e13565b6123038185612e1e565b9350612313818560208601612f99565b61231c81613103565b840191505092915050565b6000612334602383612e1e565b91507f45524332303a207472616e7366657220746f20746865207a65726f206164647260008301527f65737300000000000000000000000000000000000000000000000000000000006020830152604082019050919050565b600061239a602283612e1e565b91507f45524332303a206275726e20616d6f756e7420657863656564732062616c616e60008301527f63650000000000000000000000000000000000000000000000000000000000006020830152604082019050919050565b6000612400601f83612e1e565b91507f4372616e6b436f696e3a206e6f20616374697665206c6f636b20666f756e64006000830152602082019050919050565b6000612440602683612e1e565b91507f4f776e61626c653a206e6577206f776e657220697320746865207a65726f206160008301527f64647265737300000000000000000000000000000000000000000000000000006020830152604082019050919050565b60006124a6602283612e1e565b91507f45524332303a20617070726f766520746f20746865207a65726f20616464726560008301527f73730000000000000000000000000000000000000000000000000000000000006020830152604082019050919050565b600061250c602683612e1e565b91507f45524332303a207472616e7366657220616d6f756e742065786365656473206260008301527f616c616e636500000000000000000000000000000000000000000000000000006020830152604082019050919050565b6000612572602983612e1e565b91507f4372616e6b436f696e3a20596f752068617665207a65726f207265776172647360008301527f20746f20636c61696d00000000000000000000000000000000000000000000006020830152604082019050919050565b60006125d8602683612e1e565b91507f4372616e6b436f696e3a20776169742074696c6c206c6f636b2074696d65206560008301527f78636565647300000000000000000000000000000000000000000000000000006020830152604082019050919050565b600061263e602883612e1e565b91507f4372616e6b436f696e3a20756e6c6f636b2063757272656e74207374616b656460008301527f2062616c616e63650000000000000000000000000000000000000000000000006020830152604082019050919050565b60006126a4604683612e1e565b91507f4372616e6b436f696e3a20616374697665206c6f636b20666f756e642e20576160008301527f697420666f72207468652063757272656e74206c6f636b2074696d6520746f2060208301527f65786365656400000000000000000000000000000000000000000000000000006040830152606082019050919050565b6000612730602883612e1e565b91507f45524332303a207472616e7366657220616d6f756e742065786365656473206160008301527f6c6c6f77616e63650000000000000000000000000000000000000000000000006020830152604082019050919050565b6000612796602083612e1e565b91507f4f776e61626c653a2063616c6c6572206973206e6f7420746865206f776e65726000830152602082019050919050565b60006127d6602183612e1e565b91507f45524332303a206275726e2066726f6d20746865207a65726f2061646472657360008301527f73000000000000000000000000000000000000000000000000000000000000006020830152604082019050919050565b600061283c602583612e1e565b91507f45524332303a207472616e736665722066726f6d20746865207a65726f20616460008301527f64726573730000000000000000000000000000000000000000000000000000006020830152604082019050919050565b60006128a2603083612e1e565b91507f4372616e6b436f696e3a206c6f636b20616d6f756e74206d757374206265206760008301527f726561746572207468616e207a65726f000000000000000000000000000000006020830152604082019050919050565b6000612908602483612e1e565b91507f45524332303a20617070726f76652066726f6d20746865207a65726f2061646460008301527f72657373000000000000000000000000000000000000000000000000000000006020830152604082019050919050565b600061296e602583612e1e565b91507f45524332303a2064656372656173656420616c6c6f77616e63652062656c6f7760008301527f207a65726f0000000000000000000000000000000000000000000000000000006020830152604082019050919050565b60006129d4601f83612e1e565b91507f45524332303a206d696e7420746f20746865207a65726f2061646472657373006000830152602082019050919050565b612a1081612f82565b82525050565b612a1f81612f8c565b82525050565b6000602082019050612a3a60008301846122d0565b92915050565b6000606082019050612a5560008301866122d0565b612a626020830185612a07565b612a6f6040830184612a07565b949350505050565b6000602082019050612a8c60008301846122df565b92915050565b60006020820190508181036000830152612aac81846122ee565b905092915050565b60006020820190508181036000830152612acd81612327565b9050919050565b60006020820190508181036000830152612aed8161238d565b9050919050565b60006020820190508181036000830152612b0d816123f3565b9050919050565b60006020820190508181036000830152612b2d81612433565b9050919050565b60006020820190508181036000830152612b4d81612499565b9050919050565b60006020820190508181036000830152612b6d816124ff565b9050919050565b60006020820190508181036000830152612b8d81612565565b9050919050565b60006020820190508181036000830152612bad816125cb565b9050919050565b60006020820190508181036000830152612bcd81612631565b9050919050565b60006020820190508181036000830152612bed81612697565b9050919050565b60006020820190508181036000830152612c0d81612723565b9050919050565b60006020820190508181036000830152612c2d81612789565b9050919050565b60006020820190508181036000830152612c4d816127c9565b9050919050565b60006020820190508181036000830152612c6d8161282f565b9050919050565b60006020820190508181036000830152612c8d81612895565b9050919050565b60006020820190508181036000830152612cad816128fb565b9050919050565b60006020820190508181036000830152612ccd81612961565b9050919050565b60006020820190508181036000830152612ced816129c7565b9050919050565b6000602082019050612d096000830184612a07565b92915050565b6000604082019050612d246000830185612a07565b612d316020830184612a07565b9392505050565b6000606082019050612d4d6000830186612a07565b612d5a6020830185612a07565b612d676040830184612a07565b949350505050565b6000602082019050612d846000830184612a16565b92915050565b6000604051905081810181811067ffffffffffffffff82111715612db157612db06130d4565b5b8060405250919050565b600067ffffffffffffffff821115612dd657612dd56130d4565b5b602082029050602081019050919050565b600067ffffffffffffffff821115612e0257612e016130d4565b5b602082029050602081019050919050565b600081519050919050565b600082825260208201905092915050565b6000612e3a82612f82565b9150612e4583612f82565b9250827fffffffffffffffffffffffffffffffffffffffffffffffffffffffffffffffff03821115612e7a57612e79613047565b5b828201905092915050565b6000612e9082612f82565b9150612e9b83612f82565b925082612eab57612eaa613076565b5b828204905092915050565b6000612ec182612f82565b9150612ecc83612f82565b9250817fffffffffffffffffffffffffffffffffffffffffffffffffffffffffffffffff0483118215151615612f0557612f04613047565b5b828202905092915050565b6000612f1b82612f82565b9150612f2683612f82565b925082821015612f3957612f38613047565b5b828203905092915050565b6000612f4f82612f62565b9050919050565b60008115159050919050565b600073ffffffffffffffffffffffffffffffffffffffff82169050919050565b6000819050919050565b600060ff82169050919050565b60005b83811015612fb7578082015181840152602081019050612f9c565b83811115612fc6576000848401525b50505050565b60006002820490506001821680612fe457607f821691505b60208210811415612ff857612ff76130a5565b5b50919050565b600061300982612f82565b91507fffffffffffffffffffffffffffffffffffffffffffffffffffffffffffffffff82141561303c5761303b613047565b5b600182019050919050565b7f4e487b7100000000000000000000000000000000000000000000000000000000600052601160045260246000fd5b7f4e487b7100000000000000000000000000000000000000000000000000000000600052601260045260246000fd5b7f4e487b7100000000000000000000000000000000000000000000000000000000600052602260045260246000fd5b7f4e487b7100000000000000000000000000000000000000000000000000000000600052604160045260246000fd5b6000601f19601f8301169050919050565b61311d81612f44565b811461312857600080fd5b50565b61313481612f82565b811461313f57600080fd5b5056fea26469706673582212207ca3810e51f929a1c6affa0cecf795a42b53bca9d3e5511759645a95ccd177b264736f6c63430008000033",
  "immutableReferences": {},
  "source": "// SPDX-License-Identifier: MIT \npragma solidity 0.8.0;\n\nimport \"@openzeppelin/contracts/access/Ownable.sol\";\nimport \"@openzeppelin/contracts/token/ERC20/IERC20.sol\";\n\n/**\n * @dev Implementation of the {IERC20} interface.\n *\n * This implementation is agnostic to the way tokens are created. This means\n * that a supply mechanism has to be added in a derived contract using {_mint}.\n * For a generic mechanism see {ERC20PresetMinterPauser}.\n *\n * TIP: For a detailed writeup see our guide\n * https://forum.zeppelin.solutions/t/how-to-implement-erc20-supply-mechanisms/226[How\n * to implement supply mechanisms].\n *\n * We have followed general OpenZeppelin guidelines: functions revert instead\n * of returning `false` on failure. This behavior is nonetheless conventional\n * and does not conflict with the expectations of ERC20 applications.\n *\n * Additionally, an {Approval} event is emitted on calls to {transferFrom}.\n * This allows applications to reconstruct the allowance for all accounts just\n * by listening to said events. Other implementations of the EIP may not emit\n * these events, as it isn't required by the specification.\n *\n * Finally, the non-standard {decreaseAllowance} and {increaseAllowance}\n * functions have been added to mitigate the well-known issues around setting\n * allowances. See {IERC20-approve}.\n */\ncontract CrankCoin is Ownable, IERC20 {\n    mapping (address => uint256) private _balances;\n    mapping (address => mapping (address => uint256)) private _allowances;\n    mapping(address => Lock) public locks;\n    mapping(address => uint) private _rewardsEarned;\n\n    uint256 private _totalSupply;\n    uint256 private _totalSharedRewards;\n    uint256 private _totalLockedTokens;\n\n    string private _name;\n    string private _symbol;\n    \n    struct Lock {\n        address user;\n        uint256 amount;\n        uint256 unlockTime;\n    }\n    \n    \n    event NewLock(address indexed user, uint256 amount, uint256 unlockTime);\n    event NewUnlock(address indexed user, uint256 initialStake, uint256 rewards, uint256 timestamp);\n    event RewardShared(uint256 indexed timestamp, uint256 indexed rewards);\n\n\n    /**\n     * @dev Sets the values for {name} and {symbol}.\n     *\n     * The defaut value of {decimals} is 18. To select a different value for\n     * {decimals} you should overload it.\n     *\n     * All three of these values are immutable: they can only be set once during\n     * construction.\n     */\n    constructor() {\n        _name = \"CrankCoin\";\n        _symbol = \"CKN\";\n        _totalLockedTokens = 0;\n        \n        uint256 _amount = 10000 ether;\n        _mint(_msgSender(), _amount);\n    }\n\n    /**\n     * @dev Returns the name of the token.\n     */\n    function name() public view virtual returns (string memory) {\n        return _name;\n    }\n\n    /**\n     * @dev Returns the symbol of the token, usually a shorter version of the\n     * name.\n     */\n    function symbol() public view virtual returns (string memory) {\n        return _symbol;\n    }\n\n    /**\n     * @dev Returns the number of decimals used to get its user representation.\n     * For example, if `decimals` equals `2`, a balance of `505` tokens should\n     * be displayed to a user as `5,05` (`505 / 10 ** 2`).\n     *\n     * Tokens usually opt for a value of 18, imitating the relationship between\n     * Ether and Wei. This is the value {ERC20} uses, unless this function is\n     * overloaded;\n     *\n     * NOTE: This information is only used for _display_ purposes: it in\n     * no way affects any of the arithmetic of the contract, including\n     * {IERC20-balanceOf} and {IERC20-transfer}.\n     */\n    function decimals() public view virtual returns (uint8) {\n        return 18;\n    }\n\n    /**\n     * @dev See {IERC20-totalSupply}.\n     */\n    function totalSupply() public view virtual override returns (uint256) {\n        return _totalSupply;\n    }\n\n    /**\n     * @dev See {IERC20-balanceOf}.\n     */\n    function balanceOf(address account) public view virtual override returns (uint256) {\n        return _balances[account];\n    }\n\n    /**\n     * @dev See {IERC20-transfer}.\n     *\n     * Requirements:\n     *\n     * - `recipient` cannot be the zero address.\n     * - the caller must have a balance of at least `amount`.\n     */\n    function transfer(address recipient, uint256 amount) public virtual override returns (bool) {\n        _transfer(_msgSender(), recipient, amount);\n        return true;\n    }\n\n    /**\n     * @dev See {IERC20-allowance}.\n     */\n    function allowance(address owner, address spender) public view virtual override returns (uint256) {\n        return _allowances[owner][spender];\n    }\n\n    /**\n     * @dev See {IERC20-approve}.\n     *\n     * Requirements:\n     *\n     * - `spender` cannot be the zero address.\n     */\n    function approve(address spender, uint256 amount) public virtual override returns (bool) {\n        _approve(_msgSender(), spender, amount);\n        return true;\n    }\n\n    /**\n     * @dev See {IERC20-transferFrom}.\n     *\n     * Emits an {Approval} event indicating the updated allowance. This is not\n     * required by the EIP. See the note at the beginning of {ERC20}.\n     *\n     * Requirements:\n     *\n     * - `sender` and `recipient` cannot be the zero address.\n     * - `sender` must have a balance of at least `amount`.\n     * - the caller must have allowance for ``sender``'s tokens of at least\n     * `amount`.\n     */\n    function transferFrom(address sender, address recipient, uint256 amount) public virtual override returns (bool) {\n        _transfer(sender, recipient, amount);\n\n        require(_allowances[sender][_msgSender()] >= amount, \"ERC20: transfer amount exceeds allowance\");\n        _approve(sender, _msgSender(), _allowances[sender][_msgSender()] - amount);\n\n        return true;\n    }\n\n    /**\n     * @dev Atomically increases the allowance granted to `spender` by the caller.\n     *\n     * This is an alternative to {approve} that can be used as a mitigation for\n     * problems described in {IERC20-approve}.\n     *\n     * Emits an {Approval} event indicating the updated allowance.\n     *\n     * Requirements:\n     *\n     * - `spender` cannot be the zero address.\n     */\n    function increaseAllowance(address spender, uint256 addedValue) public virtual returns (bool) {\n        _approve(_msgSender(), spender, _allowances[_msgSender()][spender] + addedValue);\n        return true;\n    }\n\n    /**\n     * @dev Atomically decreases the allowance granted to `spender` by the caller.\n     *\n     * This is an alternative to {approve} that can be used as a mitigation for\n     * problems described in {IERC20-approve}.\n     *\n     * Emits an {Approval} event indicating the updated allowance.\n     *\n     * Requirements:\n     *\n     * - `spender` cannot be the zero address.\n     * - `spender` must have allowance for the caller of at least\n     * `subtractedValue`.\n     */\n    function decreaseAllowance(address spender, uint256 subtractedValue) public virtual returns (bool) {\n        require(_allowances[_msgSender()][spender] >= subtractedValue, \"ERC20: decreased allowance below zero\");\n        _approve(_msgSender(), spender, _allowances[_msgSender()][spender] - subtractedValue);\n\n        return true;\n    }\n\n    /**\n     * @dev Moves tokens `amount` from `sender` to `recipient`.\n     *\n     * This is internal function is equivalent to {transfer}, and can be used to\n     * e.g. implement automatic token fees, slashing mechanisms, etc.\n     *\n     * Emits a {Transfer} event.\n     *\n     * Requirements:\n     *\n     * - `sender` cannot be the zero address.\n     * - `recipient` cannot be the zero address.\n     * - `sender` must have a balance of at least `amount`.\n     */\n    function _transfer(address sender, address recipient, uint256 amount) internal virtual {\n        require(sender != address(0), \"ERC20: transfer from the zero address\");\n        require(recipient != address(0), \"ERC20: transfer to the zero address\");\n\n        (uint256 _availableBalance, uint256 _tax) =_beforeTokenTransfer(sender, recipient, amount);\n\n        require(_balances[sender] >= amount, \"ERC20: transfer amount exceeds balance\");\n        _balances[sender] -= amount;\n        _balances[recipient] += _availableBalance;\n        _totalSupply -= _tax;\n        \n        emit Transfer(sender, recipient, amount);\n    }\n\n    /** @dev Creates `amount` tokens and assigns them to `account`, increasing\n     * the total supply.\n     *\n     * Emits a {Transfer} event with `from` set to the zero address.\n     *\n     * Requirements:\n     *\n     * - `to` cannot be the zero address.\n     */\n    function _mint(address account, uint256 amount) internal virtual {\n        require(account != address(0), \"ERC20: mint to the zero address\");\n\n        _beforeTokenTransfer(address(0), account, amount);\n\n        _totalSupply += amount;\n        _balances[account] += amount;\n        emit Transfer(address(0), account, amount);\n    }\n\n    /**\n     * @dev Destroys `amount` tokens from `account`, reducing the\n     * total supply.\n     *\n     * Emits a {Transfer} event with `to` set to the zero address.\n     *\n     * Requirements:\n     *\n     * - `account` cannot be the zero address.\n     * - `account` must have at least `amount` tokens.\n     */\n    function _burn(address account, uint256 amount) internal virtual {\n        require(account != address(0), \"ERC20: burn from the zero address\");\n\n        _beforeTokenTransfer(account, address(0), amount);\n\n        require(_balances[account] >= amount, \"ERC20: burn amount exceeds balance\");\n        _balances[account] -= amount;\n        _totalSupply -= amount;\n\n        emit Transfer(account, address(0), amount);\n    }\n\n    function burn(uint256 amount) public {\n        _burn(_msgSender(), amount);\n    }\n\n    /**\n     * @dev Sets `amount` as the allowance of `spender` over the `owner` s tokens.\n     *\n     * This internal function is equivalent to `approve`, and can be used to\n     * e.g. set automatic allowances for certain subsystems, etc.\n     *\n     * Emits an {Approval} event.\n     *\n     * Requirements:\n     *\n     * - `owner` cannot be the zero address.\n     * - `spender` cannot be the zero address.\n     */\n    function _approve(address owner, address spender, uint256 amount) internal virtual {\n        require(owner != address(0), \"ERC20: approve from the zero address\");\n        require(spender != address(0), \"ERC20: approve to the zero address\");\n\n        _allowances[owner][spender] = amount;\n        emit Approval(owner, spender, amount);\n    }\n    \n    function getContractBalance() public view returns(uint256) {\n        return _balances[address(this)];\n    }\n    \n    function getTotallockedToken() public view returns(uint256) {\n        return _totalLockedTokens;\n    }\n\n    function lock(uint _amount) public {\n        require(locks[_msgSender()].unlockTime < block.timestamp, \"CrankCoin: active lock found. Wait for the current lock time to exceed\");\n        require(locks[_msgSender()].amount == 0, \"CrankCoin: unlock current staked balance\");\n        require(_amount > 0, \"CrankCoin: lock amount must be greater than zero\");\n        \n        _transfer(_msgSender(), address(this), _amount);\n        _totalLockedTokens += _amount;\n        \n        uint256 _unlockTime = block.timestamp + 30 days;\n        // uint256 _unlockTime = block.timestamp;\n\n        Lock memory _newLock = Lock(_msgSender(), _amount, _unlockTime);\n        locks[_msgSender()] = _newLock;\n        emit NewLock(_msgSender(), _amount, _unlockTime);\n    }\n    \n    function unlock() public {\n        require(locks[_msgSender()].amount > 0, \"CrankCoin: no active lock found\");\n        require(locks[_msgSender()].unlockTime <= block.timestamp, \"CrankCoin: wait till lock time exceeds\");\n        \n        uint256 _lockedBalance = locks[_msgSender()].amount;\n        uint256 _contractBalance = getContractBalance();\n        uint256 _gains = calculateLockGains(_lockedBalance);\n        uint256 _totalBalance = _lockedBalance + _gains;\n\n\n        locks[_msgSender()].amount = 0;\n        _totalSharedRewards += _gains;\n        _totalLockedTokens -= _lockedBalance;\n\n        if(_totalBalance > _contractBalance) {\n            uint256 _remainingBalance = _totalBalance - _contractBalance;\n            _mint(address(this), _remainingBalance);\n        }\n\n        _transfer(address(this), _msgSender(), _totalBalance);\n        emit NewUnlock(_msgSender(), _lockedBalance, _gains, block.timestamp);\n        \n        // locks[_msgSender()].amount = 0;\n        // _totalLockedTokens -= _lockedBalance;\n        \n        // if(_contractBalance <= _totalBalance) {\n        //     uint256 _remainingBalance = _contractBalance - _totalBalance;\n        //     _mint(address(this), _remainingBalance);\n        // }\n        // transfer(_msgSender(), _totalBalance);\n    }\n    \n    function shareReward(address[] memory _accounts, uint256[] memory _rewards) public onlyOwner {\n        uint256 _totalRewards = 0;\n\n        for(uint256 i = 0; i < _accounts.length; i++) {\n            address _user = _accounts[i];\n            uint256 _reward = _rewards[i];\n            if(_user == address(0)) continue;\n            \n            _totalRewards += _reward;\n            _rewardsEarned[_user] += _reward;\n        }\n        \n        _totalSharedRewards += _totalRewards;\n        _mint(address(this), _totalRewards);\n        emit RewardShared(block.timestamp, _totalRewards);\n    }\n    \n    function claimRewards() public {\n        require(checkRewards(_msgSender()) > 0, \"CrankCoin: You have zero rewards to claim\");\n        uint256 _rewards = _rewardsEarned[_msgSender()];\n        \n        _rewardsEarned[_msgSender()] = 0;\n        \n        uint256 _tax = (_rewards * 5) / 100;\n        uint256 _totalRewards = _rewards - _tax;\n        \n        _balances[address(this)] += _tax;\n        _transfer(address(this), _msgSender(), _totalRewards);\n    }\n    \n    function checkRewards(address account) public view returns(uint256) {\n        uint256 _rewards = _rewardsEarned[account];\n        if(_rewards == 0) return _rewards;\n        \n        uint256 _tax = (_rewards * 10) / 100;\n        uint256 _finalRewardsBalance = _rewards - _tax;\n        return _finalRewardsBalance;\n    }\n    \n    function calculateLockGains(uint256 _amount) public pure returns(uint256) {\n        uint256 _rewards = (_amount * 20) / 100;\n        return _rewards;\n    }\n\n    /**\n     * @dev Hook that is called before any transfer of tokens. This includes\n     * minting and burning.\n     *\n     * Calling conditions:\n     *\n     * - when `from` and `to` are both non-zero, `amount` of ``from``'s tokens\n     * will be to transferred to `to`.\n     * - when `from` is zero, `amount` tokens will be minted for `to`.\n     * - when `to` is zero, `amount` of ``from``'s tokens will be burned.\n     * - `from` and `to` are never both zero.\n     *\n     * To learn more about hooks, head to xref:ROOT:extending-contracts.adoc#using-hooks[Using Hooks].\n     */\n    function _beforeTokenTransfer(address from, address to, uint256 amount) internal virtual returns(uint256, uint256) {\n        uint _tax = (amount * 5) / 100;\n        uint _availableBalance = amount - _tax;\n        return (_availableBalance, _tax);\n    }\n}",
  "sourcePath": "/home/dragonlord/Desktop/dApp projects/CrankCoin/CrankCoin Backend/contracts/V1/crankToken.sol",
  "compiler": {
    "name": "solc",
    "version": "0.8.0+commit.c7dfd78e.Emscripten.clang"
  },
  "schemaVersion": "3.3.3",
  "updatedAt": "2021-03-02T13:25:46.002Z",
  "devdoc": {
    "details": "Implementation of the {IERC20} interface. This implementation is agnostic to the way tokens are created. This means that a supply mechanism has to be added in a derived contract using {_mint}. For a generic mechanism see {ERC20PresetMinterPauser}. TIP: For a detailed writeup see our guide https://forum.zeppelin.solutions/t/how-to-implement-erc20-supply-mechanisms/226[How to implement supply mechanisms]. We have followed general OpenZeppelin guidelines: functions revert instead of returning `false` on failure. This behavior is nonetheless conventional and does not conflict with the expectations of ERC20 applications. Additionally, an {Approval} event is emitted on calls to {transferFrom}. This allows applications to reconstruct the allowance for all accounts just by listening to said events. Other implementations of the EIP may not emit these events, as it isn't required by the specification. Finally, the non-standard {decreaseAllowance} and {increaseAllowance} functions have been added to mitigate the well-known issues around setting allowances. See {IERC20-approve}.",
    "kind": "dev",
    "methods": {
      "allowance(address,address)": {
        "details": "See {IERC20-allowance}."
      },
      "approve(address,uint256)": {
        "details": "See {IERC20-approve}. Requirements: - `spender` cannot be the zero address."
      },
      "balanceOf(address)": {
        "details": "See {IERC20-balanceOf}."
      },
      "constructor": {
        "details": "Sets the values for {name} and {symbol}. The defaut value of {decimals} is 18. To select a different value for {decimals} you should overload it. All three of these values are immutable: they can only be set once during construction."
      },
      "decimals()": {
        "details": "Returns the number of decimals used to get its user representation. For example, if `decimals` equals `2`, a balance of `505` tokens should be displayed to a user as `5,05` (`505 / 10 ** 2`). Tokens usually opt for a value of 18, imitating the relationship between Ether and Wei. This is the value {ERC20} uses, unless this function is overloaded; NOTE: This information is only used for _display_ purposes: it in no way affects any of the arithmetic of the contract, including {IERC20-balanceOf} and {IERC20-transfer}."
      },
      "decreaseAllowance(address,uint256)": {
        "details": "Atomically decreases the allowance granted to `spender` by the caller. This is an alternative to {approve} that can be used as a mitigation for problems described in {IERC20-approve}. Emits an {Approval} event indicating the updated allowance. Requirements: - `spender` cannot be the zero address. - `spender` must have allowance for the caller of at least `subtractedValue`."
      },
      "increaseAllowance(address,uint256)": {
        "details": "Atomically increases the allowance granted to `spender` by the caller. This is an alternative to {approve} that can be used as a mitigation for problems described in {IERC20-approve}. Emits an {Approval} event indicating the updated allowance. Requirements: - `spender` cannot be the zero address."
      },
      "name()": {
        "details": "Returns the name of the token."
      },
      "owner()": {
        "details": "Returns the address of the current owner."
      },
      "renounceOwnership()": {
        "details": "Leaves the contract without owner. It will not be possible to call `onlyOwner` functions anymore. Can only be called by the current owner. NOTE: Renouncing ownership will leave the contract without an owner, thereby removing any functionality that is only available to the owner."
      },
      "symbol()": {
        "details": "Returns the symbol of the token, usually a shorter version of the name."
      },
      "totalSupply()": {
        "details": "See {IERC20-totalSupply}."
      },
      "transfer(address,uint256)": {
        "details": "See {IERC20-transfer}. Requirements: - `recipient` cannot be the zero address. - the caller must have a balance of at least `amount`."
      },
      "transferFrom(address,address,uint256)": {
        "details": "See {IERC20-transferFrom}. Emits an {Approval} event indicating the updated allowance. This is not required by the EIP. See the note at the beginning of {ERC20}. Requirements: - `sender` and `recipient` cannot be the zero address. - `sender` must have a balance of at least `amount`. - the caller must have allowance for ``sender``'s tokens of at least `amount`."
      },
      "transferOwnership(address)": {
        "details": "Transfers ownership of the contract to a new account (`newOwner`). Can only be called by the current owner."
      }
    },
    "version": 1
  },
  "userdoc": {
    "kind": "user",
    "methods": {},
    "version": 1
  }
}